{
  "_format": "hh-sol-artifact-1",
  "contractName": "Marketplace",
  "sourceName": "contracts/Marketplace.sol",
  "abi": [
    {
      "inputs": [],
      "stateMutability": "nonpayable",
      "type": "constructor"
    },
    {
      "anonymous": false,
      "inputs": [
        {
          "indexed": false,
          "internalType": "uint256",
          "name": "id",
          "type": "uint256"
        },
        {
          "indexed": false,
          "internalType": "string",
          "name": "name",
          "type": "string"
        },
        {
          "indexed": false,
          "internalType": "uint256",
          "name": "price",
          "type": "uint256"
        },
        {
          "indexed": false,
          "internalType": "address",
          "name": "seller",
          "type": "address"
        }
      ],
      "name": "ItemListed",
      "type": "event"
    },
    {
      "anonymous": false,
      "inputs": [
        {
          "indexed": false,
          "internalType": "uint256",
          "name": "id",
          "type": "uint256"
        },
        {
          "indexed": false,
          "internalType": "address",
          "name": "buyer",
          "type": "address"
        }
      ],
      "name": "ItemSold",
      "type": "event"
    },
    {
      "inputs": [
        {
          "internalType": "uint256",
          "name": "_id",
          "type": "uint256"
        }
      ],
      "name": "buyItem",
      "outputs": [],
      "stateMutability": "payable",
      "type": "function"
    },
    {
      "inputs": [],
      "name": "getItems",
      "outputs": [
        {
          "components": [
            {
              "internalType": "uint256",
              "name": "id",
              "type": "uint256"
            },
            {
              "internalType": "string",
              "name": "name",
              "type": "string"
            },
            {
              "internalType": "uint256",
              "name": "price",
              "type": "uint256"
            },
            {
              "internalType": "address payable",
              "name": "seller",
              "type": "address"
            },
            {
              "internalType": "bool",
              "name": "sold",
              "type": "bool"
            }
          ],
          "internalType": "struct Marketplace.Item[]",
          "name": "",
          "type": "tuple[]"
        }
      ],
      "stateMutability": "view",
      "type": "function"
    },
    {
      "inputs": [],
      "name": "itemCount",
      "outputs": [
        {
          "internalType": "uint256",
          "name": "",
          "type": "uint256"
        }
      ],
      "stateMutability": "view",
      "type": "function"
    },
    {
      "inputs": [
        {
          "internalType": "uint256",
          "name": "",
          "type": "uint256"
        }
      ],
      "name": "items",
      "outputs": [
        {
          "internalType": "uint256",
          "name": "id",
          "type": "uint256"
        },
        {
          "internalType": "string",
          "name": "name",
          "type": "string"
        },
        {
          "internalType": "uint256",
          "name": "price",
          "type": "uint256"
        },
        {
          "internalType": "address payable",
          "name": "seller",
          "type": "address"
        },
        {
          "internalType": "bool",
          "name": "sold",
          "type": "bool"
        }
      ],
      "stateMutability": "view",
      "type": "function"
    },
    {
      "inputs": [
        {
          "internalType": "string",
          "name": "_name",
          "type": "string"
        },
        {
          "internalType": "uint256",
          "name": "_price",
          "type": "uint256"
        }
      ],
      "name": "listItem",
      "outputs": [],
      "stateMutability": "nonpayable",
      "type": "function"
    },
    {
      "inputs": [],
      "name": "owner",
      "outputs": [
        {
          "internalType": "address",
          "name": "",
          "type": "address"
        }
      ],
      "stateMutability": "view",
      "type": "function"
    },
    {
      "inputs": [],
      "name": "withdraw",
      "outputs": [],
      "stateMutability": "nonpayable",
      "type": "function"
    }
  ],
  "bytecode": "0x608060405234801561001057600080fd5b50336000806101000a81548173ffffffffffffffffffffffffffffffffffffffff021916908373ffffffffffffffffffffffffffffffffffffffff1602179055506116c6806100606000396000f3fe6080604052600436106100705760003560e01c80638511c9371161004e5780638511c937146100e25780638da5cb5b1461010b578063bfb231d214610136578063e7fb74c71461017757610070565b80633ccfd60b14610075578063410d59cc1461008c5780636bfb0d01146100b7575b600080fd5b34801561008157600080fd5b5061008a610193565b005b34801561009857600080fd5b506100a161028a565b6040516100ae9190610cc7565b60405180910390f35b3480156100c357600080fd5b506100cc61054e565b6040516100d99190610cf8565b60405180910390f35b3480156100ee57600080fd5b5061010960048036038101906101049190610e88565b610554565b005b34801561011757600080fd5b506101206106dd565b60405161012d9190610f05565b60405180910390f35b34801561014257600080fd5b5061015d60048036038101906101589190610f20565b610701565b60405161016e959493929190610fb5565b60405180910390f35b610191600480360381019061018c9190610f20565b6107ec565b005b60008054906101000a900473ffffffffffffffffffffffffffffffffffffffff1673ffffffffffffffffffffffffffffffffffffffff163373ffffffffffffffffffffffffffffffffffffffff1614610221576040517f08c379a00000000000000000000000000000000000000000000000000000000081526004016102189061105b565b60405180910390fd5b60008054906101000a900473ffffffffffffffffffffffffffffffffffffffff1673ffffffffffffffffffffffffffffffffffffffff166108fc479081150290604051600060405180830381858888f19350505050158015610287573d6000803e3d6000fd5b50565b6060600060015467ffffffffffffffff8111156102aa576102a9610d31565b5b6040519080825280602002602001820160405280156102e357816020015b6102d0610a43565b8152602001906001900390816102c85790505b509050600080600190505b6001548111610494576002600082815260200190815260200160002060030160149054906101000a900460ff1661048157600260008281526020019081526020016000206040518060a001604052908160008201548152602001600182018054610357906110aa565b80601f0160208091040260200160405190810160405280929190818152602001828054610383906110aa565b80156103d05780601f106103a5576101008083540402835291602001916103d0565b820191906000526020600020905b8154815290600101906020018083116103b357829003601f168201915b50505050508152602001600282015481526020016003820160009054906101000a900473ffffffffffffffffffffffffffffffffffffffff1673ffffffffffffffffffffffffffffffffffffffff1673ffffffffffffffffffffffffffffffffffffffff1681526020016003820160149054906101000a900460ff161515151581525050838381518110610467576104666110db565b5b6020026020010181905250818061047d90611139565b9250505b808061048c90611139565b9150506102ee565b5060008167ffffffffffffffff8111156104b1576104b0610d31565b5b6040519080825280602002602001820160405280156104ea57816020015b6104d7610a43565b8152602001906001900390816104cf5790505b50905060005b828110156105445783818151811061050b5761050a6110db565b5b6020026020010151828281518110610526576105256110db565b5b6020026020010181905250808061053c90611139565b9150506104f0565b5080935050505090565b60015481565b60008111610597576040517f08c379a000000000000000000000000000000000000000000000000000000000815260040161058e906111cd565b60405180910390fd5b600160008154809291906105aa90611139565b91905055506040518060a0016040528060015481526020018381526020018281526020013373ffffffffffffffffffffffffffffffffffffffff168152602001600015158152506002600060015481526020019081526020016000206000820151816000015560208201518160010190816106259190611399565b506040820151816002015560608201518160030160006101000a81548173ffffffffffffffffffffffffffffffffffffffff021916908373ffffffffffffffffffffffffffffffffffffffff16021790555060808201518160030160146101000a81548160ff0219169083151502179055509050507f16244e47af8a7d2c923faa2cab44315c0514c7aa830682bbb9cc8f0d37ad75486001548383336040516106d1949392919061146b565b60405180910390a15050565b60008054906101000a900473ffffffffffffffffffffffffffffffffffffffff1681565b600260205280600052604060002060009150905080600001549080600101805461072a906110aa565b80601f0160208091040260200160405190810160405280929190818152602001828054610756906110aa565b80156107a35780601f10610778576101008083540402835291602001916107a3565b820191906000526020600020905b81548152906001019060200180831161078657829003601f168201915b5050505050908060020154908060030160009054906101000a900473ffffffffffffffffffffffffffffffffffffffff16908060030160149054906101000a900460ff16905085565b600060026000838152602001908152602001600020905060008211801561081557506001548211155b610854576040517f08c379a000000000000000000000000000000000000000000000000000000000815260040161084b90611503565b60405180910390fd5b8060030160149054906101000a900460ff16156108a6576040517f08c379a000000000000000000000000000000000000000000000000000000000815260040161089d9061156f565b60405180910390fd5b806002015434146108ec576040517f08c379a00000000000000000000000000000000000000000000000000000000081526004016108e3906115db565b60405180910390fd5b8060030160009054906101000a900473ffffffffffffffffffffffffffffffffffffffff1673ffffffffffffffffffffffffffffffffffffffff163373ffffffffffffffffffffffffffffffffffffffff160361097e576040517f08c379a000000000000000000000000000000000000000000000000000000000815260040161097590611647565b60405180910390fd5b60018160030160146101000a81548160ff0219169083151502179055508060030160009054906101000a900473ffffffffffffffffffffffffffffffffffffffff1673ffffffffffffffffffffffffffffffffffffffff166108fc349081150290604051600060405180830381858888f19350505050158015610a05573d6000803e3d6000fd5b507f7de4035ced290be6d7724645d43bad448b5d8cc76743ff4da172c2d8e1caa0f58233604051610a37929190611667565b60405180910390a15050565b6040518060a00160405280600081526020016060815260200160008152602001600073ffffffffffffffffffffffffffffffffffffffff1681526020016000151581525090565b600081519050919050565b600082825260208201905092915050565b6000819050602082019050919050565b6000819050919050565b610ac981610ab6565b82525050565b600081519050919050565b600082825260208201905092915050565b60005b83811015610b09578082015181840152602081019050610aee565b60008484015250505050565b6000601f19601f8301169050919050565b6000610b3182610acf565b610b3b8185610ada565b9350610b4b818560208601610aeb565b610b5481610b15565b840191505092915050565b600073ffffffffffffffffffffffffffffffffffffffff82169050919050565b6000610b8a82610b5f565b9050919050565b610b9a81610b7f565b82525050565b60008115159050919050565b610bb581610ba0565b82525050565b600060a083016000830151610bd36000860182610ac0565b5060208301518482036020860152610beb8282610b26565b9150506040830151610c006040860182610ac0565b506060830151610c136060860182610b91565b506080830151610c266080860182610bac565b508091505092915050565b6000610c3d8383610bbb565b905092915050565b6000602082019050919050565b6000610c5d82610a8a565b610c678185610a95565b935083602082028501610c7985610aa6565b8060005b85811015610cb55784840389528151610c968582610c31565b9450610ca183610c45565b925060208a01995050600181019050610c7d565b50829750879550505050505092915050565b60006020820190508181036000830152610ce18184610c52565b905092915050565b610cf281610ab6565b82525050565b6000602082019050610d0d6000830184610ce9565b92915050565b6000604051905090565b600080fd5b600080fd5b600080fd5b600080fd5b7f4e487b7100000000000000000000000000000000000000000000000000000000600052604160045260246000fd5b610d6982610b15565b810181811067ffffffffffffffff82111715610d8857610d87610d31565b5b80604052505050565b6000610d9b610d13565b9050610da78282610d60565b919050565b600067ffffffffffffffff821115610dc757610dc6610d31565b5b610dd082610b15565b9050602081019050919050565b82818337600083830152505050565b6000610dff610dfa84610dac565b610d91565b905082815260208101848484011115610e1b57610e1a610d2c565b5b610e26848285610ddd565b509392505050565b600082601f830112610e4357610e42610d27565b5b8135610e53848260208601610dec565b91505092915050565b610e6581610ab6565b8114610e7057600080fd5b50565b600081359050610e8281610e5c565b92915050565b60008060408385031215610e9f57610e9e610d1d565b5b600083013567ffffffffffffffff811115610ebd57610ebc610d22565b5b610ec985828601610e2e565b9250506020610eda85828601610e73565b9150509250929050565b6000610eef82610b5f565b9050919050565b610eff81610ee4565b82525050565b6000602082019050610f1a6000830184610ef6565b92915050565b600060208284031215610f3657610f35610d1d565b5b6000610f4484828501610e73565b91505092915050565b600082825260208201905092915050565b6000610f6982610acf565b610f738185610f4d565b9350610f83818560208601610aeb565b610f8c81610b15565b840191505092915050565b610fa081610b7f565b82525050565b610faf81610ba0565b82525050565b600060a082019050610fca6000830188610ce9565b8181036020830152610fdc8187610f5e565b9050610feb6040830186610ce9565b610ff86060830185610f97565b6110056080830184610fa6565b9695505050505050565b7f4f6e6c79206f776e657200000000000000000000000000000000000000000000600082015250565b6000611045600a83610f4d565b91506110508261100f565b602082019050919050565b6000602082019050818103600083015261107481611038565b9050919050565b7f4e487b7100000000000000000000000000000000000000000000000000000000600052602260045260246000fd5b600060028204905060018216806110c257607f821691505b6020821081036110d5576110d461107b565b5b50919050565b7f4e487b7100000000000000000000000000000000000000000000000000000000600052603260045260246000fd5b7f4e487b7100000000000000000000000000000000000000000000000000000000600052601160045260246000fd5b600061114482610ab6565b91507fffffffffffffffffffffffffffffffffffffffffffffffffffffffffffffffff82036111765761117561110a565b5b600182019050919050565b7f5072696365206d757374206265203e2030000000000000000000000000000000600082015250565b60006111b7601183610f4d565b91506111c282611181565b602082019050919050565b600060208201905081810360008301526111e6816111aa565b9050919050565b60008190508160005260206000209050919050565b60006020601f8301049050919050565b600082821b905092915050565b60006008830261124f7fffffffffffffffffffffffffffffffffffffffffffffffffffffffffffffffff82611212565b6112598683611212565b95508019841693508086168417925050509392505050565b6000819050919050565b600061129661129161128c84610ab6565b611271565b610ab6565b9050919050565b6000819050919050565b6112b08361127b565b6112c46112bc8261129d565b84845461121f565b825550505050565b600090565b6112d96112cc565b6112e48184846112a7565b505050565b5b81811015611308576112fd6000826112d1565b6001810190506112ea565b5050565b601f82111561134d5761131e816111ed565b61132784611202565b81016020851015611336578190505b61134a61134285611202565b8301826112e9565b50505b505050565b600082821c905092915050565b600061137060001984600802611352565b1980831691505092915050565b6000611389838361135f565b9150826002028217905092915050565b6113a282610acf565b67ffffffffffffffff8111156113bb576113ba610d31565b5b6113c582546110aa565b6113d082828561130c565b600060209050601f83116001811461140357600084156113f1578287015190505b6113fb858261137d565b865550611463565b601f198416611411866111ed565b60005b8281101561143957848901518255600182019150602085019450602081019050611414565b868310156114565784890151611452601f89168261135f565b8355505b6001600288020188555050505b505050505050565b60006080820190506114806000830187610ce9565b81810360208301526114928186610f5e565b90506114a16040830185610ce9565b6114ae6060830184610ef6565b95945050505050565b7f4974656d20646f6573206e6f7420657869737400000000000000000000000000600082015250565b60006114ed601383610f4d565b91506114f8826114b7565b602082019050919050565b6000602082019050818103600083015261151c816114e0565b9050919050565b7f4974656d20616c726561647920736f6c64000000000000000000000000000000600082015250565b6000611559601183610f4d565b915061156482611523565b602082019050919050565b600060208201905081810360008301526115888161154c565b9050919050565b7f4d7573742073656e642065786163742070726963650000000000000000000000600082015250565b60006115c5601583610f4d565b91506115d08261158f565b602082019050919050565b600060208201905081810360008301526115f4816115b8565b9050919050565b7f53656c6c65722063616e6e6f7420627579206f776e206974656d000000000000600082015250565b6000611631601a83610f4d565b915061163c826115fb565b602082019050919050565b6000602082019050818103600083015261166081611624565b9050919050565b600060408201905061167c6000830185610ce9565b6116896020830184610ef6565b939250505056fea26469706673582212204ca5d6cbe15bbd65f146d7cd0cee72b68d1b6526c02d92f242835ff642b703ab64736f6c63430008140033",
  "linkReferences": {},
  "deployedLinkReferences": {}
}